:020000040206F2
:20200000FFFFFFFFFFFFFFFFFFFFFFFFFFFFFFFF1F8DBED678CD2D081E4CE46FC7FD4BAAA0
:202020002CB2F09B11379D2641684854826603B631B0C83662E18B8E5288DD77A7E1C2A6ED
:2020400039F24305923E8D44E422E79FE8F27AE4F1C1511A7F001541AF6BF12275B40B7DD8
:20206000681DC00376849990D208220E991E3B7E07E4E97A453F5EA2C8B39EEF8512DB1718
:202080002C0515B0C2CDB382E62AEF48F9A21076602A7465FC35BC4F24B2B7815C7D0E0684
:2020A0001414338813FC0C69F4C7F850EE0D7C97330C5DC67B833B50A5CFB0BBA57D820F2B
:2020C00079636EEE663D843853C605C25E6B1F22E17E68296DB6FC0DD0DCE6C3A139778F2E
:2020E0004B9F4EC5D5D954AC7B6975A78FAEFE14EB6D2F709EA324D39D53990D03F97EB9EE
:20210000E3FF5EF2264875AE58E6D16C817FF7271E3D108E32BAD1A80A77D4DA5247974F57
:202120005FD70F26223B286C5DB63B4EBB4F6750864D0A000101932754FA0800B51AAE0C6E
:202140001163EC118295A106CD06284300300602003006020000000000200602000000007A
:20216000A5125A5A00000000000000000000000000000000003006020030420000D0010079
:2021800000000000000050000000000000000000E350C0B87E42E8C40000000000000000D8
:2021A000808316CBA91995DFE6393CA52EDA6CCCE29A3167D45C0BA9DA39845D5F18E7E299
:2021C00094654BBB6A87A1C2F2B587EDD760FFD873ED2D62745B475D223EE9CAF127AE0642
:2021E00058DB027E6CA2DCAAAB07F29FC376D9B3A4BAB62013678C08CF172753CE2034BC10
:202200004C059F5BD2B958917440DE18E697DF214E382372949452A97EE59F88884A6EDDF3
:20222000E81C06E2AECF8C3D0B2973C645F337BFF9D6154FAC84346E0D078F1D50D574A9CA
:20224000C4A6690305F281E2DFA5F6784B5B6CFB3936B943ABC0DCB711CF875B0E4BC36A9E
:20226000492A617E6409D0139E466F092BDB4AF6462A90B08092BCC274E25C41C9DFCEB8B9
:20228000C3D9F9ABAAE0FB12126A08AA1780A4055D96DD29ADD2744C4AE7C5E2B1C3FE4730
:2022A00000010001000000000000000000000000000000000000000000000000000000001C
:2022C0000000000000000000000000000000000000000000000000000000000000000000FE
:2022E0000000000000000000000000000000000000000000000000000000000000000000DE
:202300000000000000000000000000000000000000000000000000000000000000000000BD
:2023200000000000000000000000000000000000000000000000000000000000000000009D
:203000001A481B491B4A002A05D00368001D0B60091D121FF9D118481849002903D0026053
:20302000001D091FFBD116481649174A002A05D00368001D0B60091D121FF9D11348144996
:20304000144A002A05D00368001D0B60091D121FF9D111481149002904D00260001D091FA8
:20306000FBD100BF0E4880470E480047FC040F0200004200D0050000D0054200380C000088
:20308000542A0F02885F310000000000CC0A0F0200403100881F0000885F31000000000072
:2030A000C53106025743060200F002F800F04AF80AA090E8000C82448344AAF10107DA45D7
:2030C00001D100F03FF8AFF2090EBAE80F0013F0010F18BFFB1A43F00103184770D00800B1
:2030E000B0D00800103A24BF78C878C1FAD8520724BF30C830C144BF04680C607047000019
:203100000023002400250026103A28BF78C1FBD8520728BF30C148BF0B6070471FB557F06B
:2031200089FF57F008FD57F08AFF04000020002157F08AFF401C60600020002157F089FFAA
:20314000E0601FBD00F010F81146FFF7E7FF01F002F957F083FF00004FF000501049EFF3A9
:203160000582104B9847FEE770474572726F722120506C6561736520696D706C656D656ED6
:203180007420796F7572204953522048616E646C657220666F7220495251202564210A0099
:2031A0006A3106026F60000010B581684FF40052406809F06EFC040002D1802008F0CDFC17
:2031C000204610BD1FB572B613A11F2057F04BFF124A1349134806F087FC4FF400300146F6
:2031E00057F046FF08F05DFC03210F4809F05EFD00200090019002900390684607F0AFFE6B
:203200000A494FF0FF300968884757F07FFC302006F068FD1FBD000043000000593106028F
:20322000700300008C010F02A8D50B027005200001207047012070470120704770B5F84D6C
:20324000F84CF94E2A7802EB420303EBC20304EBC30406EBC303082A01D3224600E01A4641
:20326000106000D3234688B2D86157F006FF04460121287857F006FF204657F008FF0120B6
:2032800070BD70B5E94A05460C465180022057F003FFE6482146143000780028284602D017
:2032A000BDE87040CAE7BDE8704057F0FABE2DE9F041012291078AB0C81003F06CF8DC4924
:2032C0001C2006F076FD684602F077FFD74F042214370C25F8790823052401260E2866D013
:2032E00010DC4FF00A0240F25221082828D004DC012811D003282DD117E00B2824D00C2865
:2033000028D151E000210F2858D0142859D015285BD016281ED15FE040F20F10ADF80200D2
:20332000ADF8042040F24A2007E0A520ADF802000720ADF8040040F2AD50ADF8000009E048
:203340001420ADF8020001E0ADF80220ADF80450ADF80010ADF81030387800B10120ADF830
:2033600016000F208DF81400787800B10120DFF8C482ADF818008DF815606946404602F0B2
:20338000BBFD78784FF0010258B38021404657F08DFE8DF81C5008948DF8246007A857F0B3
:2033A0008AFE0AB0BDE8F081ADF80240CEE7ADF80220ADF8044040F2F730BEE7ADF80220A4
:2033C0000CE00220ADF8020008E0ADF80260ADF8043040F29240B0E7ADF80260ADF80440E5
:2033E000B6E78121D2E770B596B0012292490D2002F0D1FF684602F023FD894C00210222A3
:2034000020788DF810108DF811200125894A8DF800008DF801502432052603918DF80310B8
:20342000082800EB40010292099601EBC00001D37C4900E07C4901EBC000694602F011FCB9
:203440002078062801D3183000E014308DF84C0014968DF8545013A857F02DFE012211461B
:20346000207857F02DFE16B070BD70B596B0012271490D2002F08FFF684602F0E1FC684C29
:203480006A4A022160788DF8000014328DF8011012898DF81010002103928DF811100591EA
:2034A00006910791089163490125243101915F49052608284968029100EB40018DF8025041
:2034C000099601EBC00001D3564900E0564901EBC000694602F0C5FB6078062801D3183080
:2034E00000E014308DF84C0014968DF8545013A857F0E1FD01221146607857F0E1FD01218B
:20350000607857F0BFFDAEE710B5484C1434A07928B16079012103F045FC607905E024791E
:203520000121204603F03EFC2046BDE8104003F09EBE10B53D4C1434A07940B9207903F0F8
:2035400053FC012803D1E16809B100208847207808B1FFF748FF6078002802D0BDE81040D8
:2035600083E710BD2DE9F041304C2D4E04F11405A0602878DFF8C480002770B13078A52850
:203580000BD101222E49304657F09FFD28B92F7000222C49404657F09DFD687880B17078E5
:2035A000A5280DD11E4801222749401C57F08DFD30B924496F7000223031404657F08AFD2E
:2035C000606808B107F045FE687808B1288900E0202007F036FE606010B1A87840B109E020
:2035E000184900226031404657F074FD0020D9E6FFF75DFE287808B1FFF7F5FE687808B16E
:20360000FFF733FFA368BDE8F041002211460120184710B505491DC8143181E81D0010BD18
:20362000000042004031284000302840D805420093473100001001401000002000301042AA
:203640007D403100D40080080140310070B5000C0E460D46012872D115F8010B15F8011B28
:2036600000EB0120020415F8014B7948120C12D0042A15D0062A27D0072A35D0032A44D06D
:20368000082A52D0092A62D00C2A77D00A2A76D00B2A75D0D6E000226E4957F01BFDD1E061
:2036A0006C4900221C3157F015FD012C02D0022C09D103E001220021104602E001220021E3
:2036C000852001F0A2F8BDE062490022403157F001FD032C02D0042C02D102E001F0D8F9F2
:2036E000B0E001F0EDF9ADE05A4900225C3157F0F1FC052C02D0062C03D103E0002001F053
:20370000D3F99FE001F0E5F99CE052490022783157F0E0FC072C02D0082C02D102E001F0AB
:20372000EDF98FE001F0EEF98CE04A490022983157F0D0FC092C03D00A2C04D104E086E002
:20374000002001F0E7F97DE001F0EEF97AE041490022B431054657F0BDFC0B2C02D00C2CCC
:2037600070D10EE03B490022D031284657F0B2FCA0221021012002F053F963E00AE018E099
:2037800033E034490022F431284657F0A3FC02F09AF957E00022304957F09CFC0D2C02D0BD
:2037A0000E2C4FD102E002F0FBF94BE002F021FA48E029490022283157F08CFC012C06D0C8
:2037C000022C09D0032C0AD0042C3BD10AE02878697801F0B5FA35E001F00DFC32E001F080
:2037E0001DFC2FE001F02DFC2CE01B490022503157F070FC0A2C25D2DFE804F024050C0F95
:203800001215181B1F2228786978AA78EB7801F0AAFD17E001F060FE14E001F0B1FE11E0A4
:2038200001F0CEFE0EE001F0DFFE0BE001F0F0FE08E0287801F009FF04E001F018FF01E0F7
:2038400001F026FF3046BDE8704057F048BC70BD0230104264018008800280081CB513228E
:20386000ADF80020ADF802006846019100F00CFE1CBD2DE9F84390468946044614F04BFB3F
:20388000054601284CDB6A460121204614F080FA044600980027FEA12754204657F024FCE7
:2038A00028B1FEA1204657F01FFC80B138E0022D36D100986A4620440021401C14F068FABA
:2038C0000446F7A157F010FC80B901260EE0022D26D100986A4620440021401C14F058FAC0
:2038E0000446EFA157F000FC00B90226282007F0A8FC05000ED0042101706F70AE70294602
:203900000120FFF7ABFF40B12346E7A24146484657F0EFFB0020BDE8F883284607F099FC83
:203920002346EAA2F2E72DE9F84390468946064614F0F1FA01282FDB6A460121304614F009
:2039400027FA064600980027ECA13754304657F0CBFB28B1EBA1304657F0C6FB10B11BE001
:20396000032500E00425282007F06BFC04000ED0062101706770A57021460120FFF76EFF1F
:2039800038B13346E1A24146484657F0B2FB0020C1E7204607F05DFC3346E3A2F3E72DE9CD
:2039A000F84390468946064614F0B5FA01282FDB6A460121304614F0EBF9064600980027BA
:2039C000CEA13754304657F08FFB28B1CDA1304657F08AFB10B11BE0052500E006252820E4
:2039E00007F02FFC04000ED0072101706770A57021460120FFF732FF38B13346D5A241462F
:203A0000484657F076FB002085E7204607F021FC3346D7A2F3E72DE9F8439046894606464C
:203A200014F079FA01282FDB6A460121304614F0AFF9064600980027D8A13754304657F01C
:203A400053FB28B1D7A1304657F04EFB10B11BE0072500E00825282007F0F3FB04000ED0BD
:203A6000032101706770A57021460120FFF7F6FE38B13346CDA24146484657F03AFB0020D1
:203A800049E7204607F0E5FB3346CFA2F3E72DE9F84390468946064614F03DFA01282FDB45
:203AA0006A460121304614F073F906460098002792A13754304657F017FB28B191A1304635
:203AC00057F012FB10B11BE0092500E00A25282007F0B7FB04000ED0082101706770A57040
:203AE00021460120FFF7BAFE38B13346C0A24146484657F0FEFA00200DE7204607F0A9FB63
:203B00003346C2A2F3E72DE9F74F82B09346054614F001FA01285DDB6A460121284614F098
:203B200037F900994FF0000A054600F801A073A157F0DAFA28B173A1284657F0D5FA28B314
:203B400048E000986A462C18641C0021204614F01FF90022114656F0A1FF00F0FF096A4687
:203B60000121204614F014F90022114656F096FF00F0FF086A460221204614F009F9002200
:203B8000114656F08BFF86B20B2700E00C27282007F057FB040016D00921017084F801A04E
:203BA000A77084F8039084F804806671310AA17121460120FFF752FE48B12B469EA25946A4
:203BC000039857F096FA002005B0BDE8F08F204607F03FFB2B469FA2F1E72DE9F843904632
:203BE0008946064614F097F901282FDB6A460121304614F0CDF80646009800273FA137545C
:203C0000304657F071FA28B13EA1304657F06CFA10B11BE00D2500E00E25282007F011FB55
:203C200004000ED00C2101706770A57021460120FFF714FE38B1334691A24146484657F097
:203C400058FA002067E6204607F003FB334693A2F3E72DE9F84F92468B46064614F05BF918
:203C60000446012812DB6A460121304614F090F800994FF00009064600F8019092A157F0E0
:203C800033FA10B145A1304622E130E16EE1000072696E67746F6E6500000000767000002B
:203CA000706C6179000000006E6F74696669636174696F6E2025732066726F6D2061756461
:203CC000696F2064656D6F2E0D0A0000496E76616C696420706172616D20257320286E6F2D
:203CE00074696669636174696F6E20706C61792F73746F70292E0D0A00000000656E6162CB
:203D00006C65000064697361626C65006170742025732066726F6D20617564696F20646512
:203D20006D6F2E0D0A000000496E76616C696420706172616D202573202861707420656E32
:203D400061626C652F64697361626C65292E0D0A000000006C6C6170742025732066726F22
:203D60006D20617564696F2064656D6F2E0D0A00496E76616C696420706172616D202573EA
:203D800020286C6C61707420656E61626C652F64697361626C65292E0D0A0000737461720C
:203DA0007400000073746F70000000006C696E652025732066726F6D20617564696F2064DF
:203DC000656D6F2E0D0A0000496E76616C696420706172616D20257320286C696E6520732A
:203DE000746172742F73746F70292E0D0A000000616E632025732066726F6D206175646924
:203E00006F2064656D6F2E0D0A000000496E76616C696420706172616D2025732028616E62
:203E20006320656E61626C652F64697361626C65292E0D0A000000007661642025732066AE
:203E4000726F6D20617564696F2064656D6F2E0D0A000000496E76616C696420706172614D
:203E60006D202573202876616420656E61626C652F64697361626C65292E0D0A00000000A2
:203E80006B77732025732066726F6D20617564696F2064656D6F2E0D0A000000496E766177
:203EA0006C696420706172616D20257320286B777320656E61626C652F64697361626C65B9
:203EC000292E0D0A00000000637265617465000057F00AF938B3AFF23411304657F004F92B
:203EE00018B39CA1304657F0FFF800B33EE0032C3CD100986A463418641C0021204613F05B
:203F000047FF0022114656F0C9FD00F0FF086A460121204613F03CFF0022114656F0BEFDEF
:203F2000C7B2012404E0022402E0032400E00424282007F086F9050012D00A21017085F80A
:203F40000190AC7085F803802F7129460120FFF785FC40B1334681A25146584657F0C9F843
:203F60000020BDE8F88F284607F073F9334682A2F2E72DE9F74F82B0054613F0CCFF0446BD
:203F8000012841DB6A460121284613F001FF00994FF0000B054600F801B0AFF2D40157F005
:203FA000A3F8002831D0AFF20C21284657F09CF800285DD0AFF21421284657F095F8002891
:203FC00058D073A1284657F08FF8002854D072A1284657F089F8002850D05EA1284657F0D8
:203FE00083F800284CD06EA1284657F07DF8002848D06EA1284657F077F8002852D06FA1FC
:20400000284657F071F890B37AE0052C78D100986A462C18641C0021204613F0B9FE0022FC
:20402000114656F03BFD00F0FF086A460121204613F0AEFE0022114656F030FD00F0FF0AE8
:204040006A460221204613F0A3FE0022114656F025FDC6B26A460321204613F099FE002234
:20406000114656F01BFD00F0FF0901241DE01BE002241AE0032418E0042416E0052414E0FC
:20408000062412E0022C3BD100986A4628440021401C13F07DFE0022114656F0FFFCC6B2E9
:2040A000072402E0082400E00924282007F0C9F807001FD00B210170781C012C00F801BBB2
:2040C00000F8014B02D0072C08D008E080F8008080F801A0867080F8039000E006703946F0
:2040E0000120FFF7BBFB40B12B4638A2DDE9030156F0FFFF002067E502E0384607F0A9F845
:204100002B461DA2F2E710B5374813F0D4FE36481C3013F0D0FE3448383013F0CCFE3248B7
:20412000543013F0C8FE3048703013F0C4FE2E488C3013F0C0FE2C48A83013F0BCFE2A48E7
:20414000C43013F0B8FE2848BDE81040E03013F0B2BE000072656C6561736500706970653B
:204160002025732066726F6D20617564696F2064656D6F2E0D0A0000496E76616C69642090
:20418000706172616D202573202E0D0A0000000070617573650000007265737461727400CE
:2041A000766F6C5F6F75745F73657400766F6C5F6F75745F6D75746500000000766F6C5F7A
:2041C0006F75745F756E6D7574650000747261636B2025732066726F6D20617564696F2097
:2041E00064656D6F2E0D0A00040042001CB52321192056F083FF00240122009423461146DE
:204200001920019456F07FFF2421182056F076FF01220094002311461820019456F073FF1E
:204220000621012056F06AFF0521002056F066FF01220094002311461046019456F063FFD2
:2042400000230122009411461846019456F05BFF0121084602F03CFEBDE81C4001210020BB
:2042600002F036BE1FB5784C2022D4E9000156F04FFF764DBF264FF0FF370096744B3A463A
:2042800003A9206856F049FF0028F6D09DF80C000121B1EB101F23D100226E49284656F05F
:2042A00019FFC62000906A4B002201A9606856F034FF0028E1D0674900222431284656F0FA
:2042C00009FF9DF80C001128D7D1624900224031284656F0FFFEDDE9010100F0F0F8CCE712
:2042E000010906D00221B1EB101F05D114F0C7F9C3E756F017FFC0E70321B1EB101FBCD12D
:2043000006F096FEB9E73EB5514CE9201534CDE900404D48082320224FA1001D56F007FF40
:20432000EB20CDE90040012340224CA1464856F0FEFE45481021006806F0B8FE01214FF402
:2043400040600023AFF2E302CDE9000145A102A856F0F2FE3EBD10B5FFF748FF00F01FF893
:20436000FFF7D1FF3848006814F0E5F9002014F0A4FF18F0FAFD4FF40053DA1051004FF4D3
:20438000505009F064FD00F034FA00F07BFB00F0ABFBFFF7B8FE56F0D4FE002010BD70B533
:2043A0008CB0002418258DF804508DF805508DF8064008208DF807004FF496708DF802401E
:2043C0001926ADF808008DF8036001208DF8010003948DF800406846FFF71BF94FF400709B
:2043E00009900A902548CDE904048DF82C6024488DF82D50CDE906402248089004A909A884
:2044000014F04EF8002014F0C2F801200AF02CFC292001F051FA0D4C641C18B10D49002292
:20442000A43906E001F097FA4FF0000230B109498039204656F04EFE0CB070BD0549034890
:204440005C39801EF6E70000FC0542000230104244D60B029C038008696F5100657674516E
:2044600000000000617564696F5F64656D6F5F6D61696E5F7461736B00000000653506026E
:2044800083320602393206021CB5014611208DF804001320009014480024124B22460068AA
:2044A00056F054FE48B11520009010480D4B002201A9006856F04AFE044620461CBD70B586
:2044C000044680B20D4613280AD100220849094856F000FE29462046BDE87040FFF7B6B861
:2044E00070BD000063D60B0200064200FC054200F803800802301042F0B50C46024640F246
:2045000007210025D14E8BB0A0F207204FF480738A426ED03EDC40F21111A2F211108A420C
:2045200068D00BDC40F20311A2F203108A4261DD01285FD00D285DD1C5A467E0F0287CD096
:2045400022DC0F284FD0102854D0EF287ED12079002858D00AA9206811F0E5F8002875D0D6
:204560002079012851D0022856D0052854D0032879D004286AD1BBA4204656F0ECFD0146A1
:20458000204613F0EBFDDAE0F1286BD0F2285DD1BAA43BE0FF282ED011DCFA282FD007DCE5
:2045A00001287CD002287BD0F9284FD1BCA42DE0FB2826D0FE2849D12278BDA1A2E0B0F5EB
:2045C000857F12D007DC984217D0A0F5807009383CD1BCA41AE0A0F58070F93807D001286E
:2045E00034D1BEA412E0C1A410E0C4A40EE0C9A40CE03AE02AE0CBA408E0CEA406E0D1A416
:2046000004E0D4A402E0DAA400E0DFA4204656F0A2FD014620467AE0E1A4204656F09BFD60
:204620000146204613F09AFD9DF82800302178B101280BD10123009500E061E0CDE9015115
:204640008248F278DCA1401C56F08AFD0BB0F0BD01200095CDE901010023F278DCA17B48DD
:20466000F2E700E056E0DFA486E7A088401C06F0E8FD070010D0A08807AACDE9002708A9AE
:20468000CDE9020104AB06AA05A9206810F0B0FF08B3384606F0DDFD0AA9206801E03BE0DD
:2046A00047E011F040F80028D0D0B078401CC0B2B0709DF82810012916D00229C6D1642891
:2046C000C4D1CEA4204656F046FD0146204613F045FDB570BAE70022CD49CE4856F0FAFCA2
:2046E000384606F0B6FDB1E764281FD1CAA4204656F031FD0146204613F030FDB57015E040
:204700006279CAA1684656F030FD81B2684613F025FD9BE7CEA479E70AA9206811F003F8A1
:20472000002893D09DF8280000288FD100F045FD8CE70AA9206810F0F6FF002886D09DF8C1
:204740002800002882D1414806F00DFD7EE738B504460091AE49034602223431AD4856F0FC
:20476000B9FC6CB1012C10D1002400F026FD641C0F2CFADBBDE838403448401C06F0F3BCF8
:2047800000F01BFD641C032CFADB38BD08280ED2DFE800F004040D0404040404B44830F884
:2047A0001130138030F811005080012070470020704708280FD2DFE800F00E0404040E0E6F
:2047C0000404AB48203030F81130138030F811005080012070470020704710B50024A54A02
:2047E000A54920460DF09FFA641CE4B20C2CF6D310BD10B5A14808F070FB1449A048C91CB0
:2048000006F088FCBDE81040E7E770B5044600201546802C0AD219B1012120460AF05DF848
:2048200029462046BDE870400AF036B8FF2C0CD2803C19B1E0B201210AF0D8F8E0B22A4657
:20484000BDE8704000210AF0A6B870BD0406420052696E67746F6E6520706C61796564210B
:204860000D0A0000417564696F20547261636B20506175736564210D0A00000041756469DD
:204880006F20547261636B20566F6C756D65204F757420556E6D75746564210D0A0000006A
:2048A00056414420656E61626C6564210D0A00004B5753204869743A20696E646578202509
:2048C000640D0A00506173737468726F75676820656E61626C6564210D0A00004C696E651A
:2048E0002073746F70706564210D0A00565020706C61796564210D0A00000000506173734D
:204900007468726F7567682064697361626C6564210D0A004C696E65207374617274656467
:20492000210D0A00414E4320656E61626C6564210D0A0000414E432064697361626C656420
:20494000210D0A005641442064697361626C6564210D0A00566F696365206163746976691E
:204960007479206465746563746564210D0A0000417564696F20547261636B2052656C6501
:2049800061736564210D0A00417564696F20547261636B2043726561746564210D0A00002B
:2049A000417564696F20547261636B2053746172746564210D0A0000617564696F5F646587
:2049C0006D6F5F6D7362635F706C617900000000617564696F5F64656D6F5F7362635F7066
:2049E0006C617900417564696F20547261636B2053746F70706564210D0A00005265636FAA
:204A00007264204461746120496E210D0A0000002004800803301042566F6963652044612B
:204A2000746120496E210D0A00000000417564696F20547261636B20566F6C756D65204F84
:204A40007574204C6576656C3A202564200D0A00417564696F20547261636B20566F6C756E
:204A60006D65204F7574204D75746564210D0A0074D60B02B34706028D470602F94406023B
:204A80004F4706024BF680314FF0011012F093B914480178022905D0012101700021084611
:204AA00012F0F2B9002070470E4A1378022B05D0012301461370184612F0E6B900207047C9
:204AC0000848017819B10321017012F0FCB9002070470448017819B10321017012F0F3B94E
:204AE000002070470806420010B54BF680310A4606480DF0D1FE0649086010BD0448006836
:204B00000DF029BF024800680DF03FBF010002000C06420009490A78022A03D001220A703C
:204B200011F0E2BE002070470448017819B10321017011F0DDBE002070470000100642000E
:204B40003EB5F74CF74AE068126800F15101914215D8F54A512110440122CDE90020029188
:204B600000236288194660680EF0F2FC002805D06088401C6080E0685130E0603EBD0020D0
:204B8000E060DEE73EB5E64CE84AE068126800F13901914215D8E64A392110440122CDE955
:204BA0000020029100236288194660680EF0D0FC002805D06088401C6080E0683930E06032
:204BC0003EBD0020E060DEE73EB5D54CD94AE068126800F17801914215D8D74A7821104484
:204BE0000122CDE90020029100236288194660680EF0AEFC002805D06088401C6080E068E4
:204C00007830E0603EBD0020E060DEE73EB5C44CCA4AE068126800F5F071914217D8C84A89
:204C20004FF4F07110440122CDE90020029100236288194660680EF08BFC002806D0608851
:204C4000401C6080E06800F5F070E0603EBD0020E060DCE7B248007830B1022805D00328A0
:204C600004D0082803D1AFE7D0E78BE768E7704730B5AB4C002589B0A06806292DD2DFE860
:204C800001F03103162F211E4FF4806128B9084606F0D7FAA060002820D06580A9A42046A1
:204CA00056F059FA0146204613F058FA15E0ABA4204656F050FA0146204613F04FFAFFF730
:204CC000C9FF0AE006AACDE9002007A9029105AB04AA03A960680EF0A2FC012009B030BD24
:204CE000A4A4DCE710B106F0B4FAA560A7A4D6E7009910F0FF0006D0022806D0032804D0CA
:204D000008281BD102E01A4600E00A46B2B14FF0553000EA5200101A4FF0333100F0333280
:204D200001EA9000104400EB101000F00F3000EB102000EB104000F03F0070470120704756
:204D40002DE9F04F8346764891B08C4640684FF0010E08B193A443E16BF307055FEA0B0894
:204D60004FF001014BF680324FF010034FF000004FF0030A18D0B8F1020F22D0B8F1030FD3
:204D800040D0B8F1080F2FD086468DF82CC0BCF1000F4BD0BCF1020F56D0BCF1030F75D048
:204DA000BCF1080F71D162E0F02464F30F06022464F3174661F30F25914663F31F6654467D
:204DC000E3E760F307060F2767F30F26082767F317461A2767F3070461F30F254FF47A59BA
:204DE00060F31F660746D0E761F31F644FF07808064668F30F0461F30F25914663F3174477
:204E00003746C2E7062767F30F25574667F3070663F30F264FF0080868F317464FF02208B2
:204E2000914660F31F6668F30704AEE78DF82D10F021ADF8341002218DF836100C928DF8FB
:204E40003730CDF838A033E08DF82D104FF47A510C918DF834000F218DF8351008218DF86D
:204E600036101A218DF837008DF838100AE08DF82D108DF83B10CDE90C207821ADF8381044
:204E80008DF83A300F9013E000E048E006218DF82D1008218DF836108DF8353022218DF8FA
:204EA00034A08DF838100C928DF83700CDF83CA0BEF1000F33D0DFF8688088F800B0AFF205
:204EC0004F21CDE9090118220BA903A856F052F98DE8900833464A46294600200EF0D5F907
:204EE000C8F8040000286BD0CDE9007B2346324649462846FFF7FCFE0446DDE90F010DF16E
:204F00002C0CCDE900019CE80F00FFF7F1FE0146022C6CD1012954D0022955D067E05EE055
:204F20001406420004014200BCD60B02000142002FF30C0208014200E80F0D020C0142001C
:204F4000C8C30D02417564696F20506970652043726561746564210D0A0000004175646984
:204F60006F20506970652053746172746564210D0A000000417564696F20506970652053D2
:204F8000746F70706564210D0A000000417564696F20506970652052656C65617365642147
:204FA0000D0A0000417564696F205069706520416C7265616479204578697374210D0A00F3
:204FC00016E0CDF800A004E02C48D0E90020CDE900206A46D8F804000EF084FA07E028A4BC
:204FE000204656F0B8F80146204613F0B7F8012011B0BDE8F08F2B4810B5406860B10EF001
:20500000E7F938B928A4204656F0A5F80146204613F0A4F8012010BD2AA4F4E7214810B599
:20502000406860B10EF0F0F938B92CA4204656F092F80146204613F091F8012010BD21A4ED
:20504000F4E770B5174D686868B10EF075F938B929A4204656F07FF80146204613F07EF890
:205060000020686007E017A4204656F074F80146204613F073F8012070BD0000B4D60B028E
:20508000417564696F205069706520436F646563204E6F7420537570706F72746564210D0D
:2050A0000A00000014064200417564696F2050697065205374617274204661696C65642136
:2050C0000D0A0000417564696F2050697065204E6F74204578697374210D0A0041756469E0
:2050E0006F20506970652053746F70204661696C6564210D0A000000417564696F20506965
:2051000070652052656C65617365204661696C6564210D0A0000000010B5F84CF84A86B0BB
:20512000A068126800F5F37191421AD8F54B04AA184406234FF4F371CDE90030CDE9021205
:20514000002362881946606810F003FA002806D06088401C6080A06800F5F370A06006B0E6
:2051600010BD0020A060FFF7D7FFF8E710B5E34CE54A86B0A068126800F13901914217D8CF
:20518000E24B04AA184401233921CDE90030CDE90212002362881946606810F0DAF900287B
:2051A000DDD06088401C6080A0683930A060D6E70020A060FFF7DAFFD1E7D0480078002891
:2051C00005D0022802D0032801D1A5E7CEE770472DE9FF4F002785B03E46B9464FF0020A7B
:2051E0004FF0010B51B1012906D0022908D015F0FF0006D0022804D002231CE04D4600E0F3
:205200005546DDF81C80404656F031FD012811D10324B8F5803F19D006DCB8F1010F13D083
:20522000B8F1040F06D114E0B8F5003F10D0B8F5802F0ED003230122B549B64855F04AFF0E
:20524000002009B0BDE8F08F5C4602E04C4600E05446E9B202A8079A0CF0E6FCDDE9020134
:20526000CDE9000100229DF8005012E00198C2EBC20100EB81018B780878A34208D122287D
:2052800000D000B9CF7B232801D0012800D1CE7B521C9542EADC68460CF006FD384656F060
:2052A000E6FC0446304656F0E2FC0899204408700120C6E70FB41822F0B587B00646002098
:2052C0000C468DF81800149D0EA9684655F052FF9DF8000030B1022806D0032804D008288E
:2052E0002AD103E0039802E0049800E0029818B356F0BDFCC7B2012F1AD006AB2A46214658
:205300003046FFF765FF002812D0834AB4B1022C0ED19DF81800012822D0022808D1D2E9EE
:205320000401CDE900016A463946304610F06FFC07B0F0BC5DF814FB0120DBE79DF818103A
:2053400001290AD00229F3D1D2E90002CDE900026A46304610F023FCEAE703200090F7E73E
:20536000D2E90201DDE72DE9F04FDFF89091074691B0D9F804009A4693460D46012608B10F
:2053800066A49FE018210AA855F0F9FE012110238DF828504FF0030C4BF68032002075B184
:2053A0004FF00808022D18D0032D36D0082D26D000268FB3012F44D0022F47D144E08DF888
:2053C0002910F021ADF8301002218DF832100B928DF83330CDF834C0EBE78DF829104FF4A3
:2053E0007A510B918DF830000F218DF831108DF832801A218DF833008DF834100AE08DF839
:205400002910CDE90B208DF837107821ADF834108DF836300E90CCE711E006218DF830C05B
:205420008DF829108DF831308DF8328022210B928DF833008DF83410CDF838C0B9E70124AE
:2054400004E04FF0011401E04FF48034C6B389F80050CDE907400990CDE905BA4E4614221D
:205460000BA9684655F086FE0022114638460A9B0FF010FF3C224FF4A571706010F00EF9C9
:2054800000226421706810F0A5F90DF13008049498E80F008DE80F00DDE90A2339467068C4
:2054A000FFF708FF022F14D1012008F0EFFD0146F060706810F0FBFEF06808F01BFE08E01B
:2054C000FFE71EA4204655F046FE0146204612F045FE012011B0B5E6084810B5406860B1F8
:2054E0000FF095FF38B91EA4204655F034FE0146204612F033FE012010BD3FE02406420030
:2055000004014200BCD60B02000142002FF30C02880480080030104288560E02417564692B
:205520006F20547261636B20416C7265616479204578697374210D0A00000000417564691D
:205540006F20547261636B20466F726D6174204E6F7420537570706F72746564210D0A00CF
:20556000417564696F20547261636B205374617274204661696C6564210D0A004DA4B3E7CE
:2055800010B5534C6068C8B1E06840B108F0DDFDE168606810F0BAFEE06808F001FE60688B
:2055A0000EF01BFC40B9AFF24804204655F0D3FD0146204612F0D2FD01209DE73DA4F4E796
:2055C000434810B5406868B10FF06CFF40B9AFF27004204655F0BFFD0146204612F0BEFD71
:2055E000012089E733A4F4E7394810B5406868B10FF033FF40B9AFF29804204655F0ABFDA7
:205600000146204612F0AAFD012075E729A4F4E770B52F4D686870B10FF06CFF40B9AFF279
:20562000C004204655F097FD0146204612F096FD0020686007E01FA4204655F08CFD014618
:20564000204612F08BFD012070BD0146204810B5406810B10EF072FC07E016A4204655F077
:205660007AFD0146204612F079FD012044E7184810B5406810B110F00EFA07E00DA42046AE
:2056800055F069FD0146204612F068FD012033E70F4810B5406810B110F02CFA07E005A4D5
:2056A000204655F058FD0146204612F057FD012022E70000417564696F20547261636B2096
:2056C0004E6F74204578697374210D0A000000002406420010B50B4602464021002003F0F6
:2056E000FFFA08B1002010BD012010BD07B582B00123CDE9001202AA4021002003F040FBE8
:2057000010B1002005B000BD0120FBE7F8B516460C46054601226946FFF7E8FF002809D0DD
:205720009DF800102640A14331438DF800102846FFF7D0FFF8BD10B5562801D3002010BD85
:2057400055F022FD012010BD43F60461A0F57A60884201D30020704780B27D21B0FBF1F019
:20576000C2B23F210120D1E77F2801D90020704702463F210220C9E708B1802200E000224D
:2057800080210220C2E7012803D0022801D0002070470146FF20CEE7802211460320B5E7FC
:2057A000002200B1402240210320AFE708B1202200E0002220210320A8E708B1082200E0E7
:2057C000002208210320A1E7810801D00020704702460321084699E708B1102200E000227B
:2057E0001021032092E701463E480078A3E708B500218DF8001088B1012269460320FFF776
:2058000075FF9DF8000000F00303022B08D201223549364855F05EFC002008BD002200E0DD
:20582000402240210320FFF771FF08BD3EB500242F488DF8064000908DF807404020ADF89D
:2058400004006946204602F0E0FF2648022301221946007803F0A7FC0120FFF7C4FF2549F3
:205860004FF47A70096888478DF80840012202A90520FFF73BFF0028204603D0FFF7B3FFC2
:2058800001203EBDFFF7AFFF00203EBD10B50120FFF7A9FF17494FF47A70096888470220BA
:2058A000FFF792FF002800D0012010BD10B50020FFF799FF012010BD0EB5562801D30020E5
:2058C0000EBD08490870AFF27F100090AFF243000190AFF227000290684605F0D4FFFFF739
:2058E000A5FF0EBD34064200B404800800301042801A060078052000F8B50546002016464A
:205900000C468DF8000001226946284600F052F89DF800302640A34333438DF800302A468A
:205920006421002003F0DCF908B10020F8BD0120F8BD10B5002000F061F8012000F05AF805
:20594000012010BD10B5012000F058F8002000F051F8012010BD10B586B02C4802902C4877
:2059600003902C48049002A805F08DFF00242A488DF8064000908DF807406420ADF8040077
:205980006946204602F041FF8DF81440012205A9022000F00FF858B100220C210120FFF78E
:2059A000ABFF42F2544000F015F8012006B010BD2046FBE707B582B00123CDE9001202AA06
:2059C0006421002003F0DCF910B1002005B000BD0120FBE71149A0F598508838884201D3CF
:2059E0000020704780B26421B0FBF1F0C2B23F21002081E70246012108467DE708B1022238
:205A000000E000220221012076E70000D55906023359060245590602801A0600E1A501004C
:205A20002DE9F046314E824685B030781346022847D00125002035704FF47A570490BAF11E
:205A4000000F22D061F31F6465F317448146424663F30F0469F307023B46CDF80CB08DE827
:205A600010125046049912F072F8002012F089F8022008F00BFB706012F0F8F8706808F010
:205A800039FB012005B0BDE8F08600221849194855F020FB4FF0030C6CF30704102060F362
:205AA0000F24082060F317440020424660F31F646CF30702222065F30F223B4660F3070948
:205AC000CBE70020DEE710B5084C207860B103202070606808F039FB606812F0EEF860684E
:205AE00008F05EFB12F05BF8002010BD3806420028058008023010423EB5424C424A606885
:205B0000126800F15101914215D8404A512110440122CDE900200291002362881946A068B8
:205B200008F05DFD002805D06088401C60806068513060603EBD00206060DEE710B5344C04
:205B4000062929D2DFE801F02A030520101731A41BE034A4204655F0FEFA0146204612F0F0
:205B6000FDFAFFF7C9FF17E0134601223149204655F0B0FA10E0FFF7BFFF2E4900221C31A4
:205B8000204655F0A7FA07E02BA4204655F0E3FA0146204612F0E2FA012010BD2AA4F4E759
:205BA000FEB5184D2878022821D0032464F30702102767F30F220121082767F3174200279E
:205BC00064F3070067F31F62297061F30F2022274BF6803167F30703AFF29F078DE8D00045
:205BE00008F05AFDA86008F092FD0120FEBD0020FEBD044810B5017811B1806808F0A5FD42
:205C0000002010BD4006420010014200A0560E02023010424B575320437265617465642144
:205C20000D0A00004B57532053746172746564210D0A0000440580084B57532053746F709D
:205C4000706564210D0A00004B57532052656C6561736564210D0A000022A1490D2000F038
:205C60009ABBF0B59F4A0E78904201D89E4A01E09E4A103E4B6803608B6883600127C2F843
:205C8000D870D2F8E030936F07FA06F52B439367D2F880302B43C2F88030D2F890302B4332
:205CA000C2F89030D2F888302B43C2F88830D2F898302B43C2F89830082E08D2083607FA37
:205CC00006F31365936593661366136707E0103607FA06F4146594659466146614678B69F2
:205CE0004C6907EB430343EA04134C7C43EAC4130C7C43EA44230C6A43EAC423CC6943EA9F
:205D000084334C7843EA04538361CB68C3614B784BB1012B0ED0022B91F8243003F00F0371
:205D200016D01B010EE091F824304FF4406403F00F0305E091F824304FF4006403F00F033C
:205D400044EA0313036491F82A30012B03D00DE04FF48064F4E7836943F4003383618C8E73
:205D60008B6B43EA045383648B6CC36491F82930012B0BD1836943F4802383618C8F0B6C7E
:205D800043EA04530365B1F8443043650023036191F82830012B0DD1CB6A03F0404413F031
:205DA000C05304D00E6B066186691E438661036C23430364436C4E4C234043648B7803F060
:205DC000200403F01006640144EA061403F00F031C43436C43EAC4134364CB7803F02004D1
:205DE00003F01006A40044EA460403F00F031C43436C43EAC4234364C978A1F11803072B90
:205E000005D83C4C636A08398F403B436362416C21F003014164416C41F00201416452F8C6
:205E2000780F28431060906828439060906928439061106928431061106A28431062F0BDFF
:205E40000021017002224270C823C3600274417441618161C1610162416081604FF0C052C5
:205E6000C26241628170C17080F8281080F8291080F82A1001228264A0F844200163C16399
:205E8000016441638163704730B500220A253223046C194644F480740464046CE40702D142
:205EA000491EC9B2F9D2016CC9070AD00FE0016C890706D5016C490703D5521CD2B2AA42E4
:205EC00004D25B1E13F0FF03F1D102E00BB1012030BD016C21F480710164002030BD00001B
:205EE0001000002068362840C0322840C00210BE7F00F8FF00600040F74A10B5536A43F076
:205F0000C0435362C26822F08002C260002242604269826842F002028260C26842F080029A
:205F2000C260026A22F0F0020262026A8B8842EA03120262C269E94B1A40C261C2690B88AD
:205F400042EA0342C2618A7802604A88120A4260C26822F08002C2600A894B891A43CB88C2
:205F60001A43C260CA89012303EB02220B8A1A438260026922F02202026102698B891A4365
:205F800002614A8A02640A8A082A1AD1CA8A52B1826A22F0F8028262826A0B7D022444EAB8
:205FA000C3031A4382620A8B002A0AD0826A22F47C528262826A497D042343EA01210A4318
:205FC000826210BD0146C64A002052F820308B4204D0401CC0B21828F7D3FF207047182870
:205FE00001D300207047BE4951F8200070472DE9F04F00260C27052402254FF00B0B4FF03D
:20600000090E4FF0080C4FF0010A40F25229182B6FD2DFE803F00C141D2224262D343B3D5F
:20602000444A4C4E51545B6167696F71787B40F61D2303800720088040F2F77006E040F2DB
:206040000F1303800A20088040F24A2010803AE040F20F1303800C8007E07B2309E052235D
:2060600007E0552303800720088040F22220EDE729230380A1F800B040F2FF60E6E723238B
:206080000380A1F800E040F2EF70DFE7142307E0192303800720088040F25550D6E70F235B
:2060A00003800F80A2F800900DE00A23F8E70480F7E7A0F800C004E00323038007E0042356
:2060C00003800C8016800120BDE8F08F0580A1F800E040F2AA20B9E70580A1F800C040F22C
:2060E000F750B3E7058009E005800C8040F2F730ACE712E00580E4E7A0F800A0A1F800C081
:2061000040F29240A2E7A0F800A0DAE7A0F800A0A1F800A040F26D3098E70020D4E71EB58C
:2061200004460B4602AA01A96846FFF760FF002822D0E06840F08000E060206A20F0F0008F
:206140002062206ABDF8041040EA01102062E06962490840E061E069BDF8081040EA0140AF
:20616000E061BDF80000C1B22160000A6060E06820F08000E06001201EBD5A49884203D116
:2061800000228104C81015E05749884203D1002256490C200EE05649884204D15349002276
:2061A000891E544806E05449884205D14F490022891D881000F0EFB87047142141800C2110
:2061C000818040F2522101800021018141810122C280018281811023C38142820F23037564
:2061E0004275C182018370472DE9F04117090E46804602F00F0500240CE006EB041110229B
:20620000404654F0C6FF4021404654F0C7FF0128F9D1641CBC42F0D3002D0BD02A4606EB61
:206220000411404654F0B5FF4021404654F0B6FF0128F9D1BDE8F0810129016903D021F06A
:2062400010010161704741F01001FAE701290CD0016C21F000410164416C41F00101416442
:20626000816C21F0010181647047816C41F001018164016C41F0004101647047194B9A0480
:20628000984204D1D2F8A80261F3082006E0164B984206D1D2F8A80261F3CB20C2F8A80250
:2062A0007047134B984204D1D2F8A80261F30C30F4E7114B9842F3D1D2F8A80261F38A20CF
:2062C000ECE70029816A02D041F0040101E021F0040181627047000000600040FFFF00F8A8
:2062E000BCE00E0200100140001401400C0000200018014001000008001028402C20E9E72A
:20630000C26842F08002C26002680A6042684A60C26822F08002C26042688A60026DCA6048
:20632000C2680A6102694A61C2698A61026ACA61026C0A62826C4A62806A8862CAE710B547
:20634000C26842F08002C260CA6902628A69C2610A6802604A684260C26822F08002C26088
:20636000CA69082303EA52534FF4F85404EA924213435B1C83600A69C2604A6902618A688F
:206380004260CA6802650A6A02644A6A8264896A816210BD70472DE9F05FDFF808B4904626
:2063A0000C468146C0F382664D0FFE484FF080471238012A12D0DFF8F0A3844203D1DAF854
:2063C0000010022088475C4503D1DAF80010012088470C2C7ED0102C7CD053E084420AD193
:2063E000D7F80C0240F08060C7F80C02D7F80C0240F000500BE05C450CD1D7F80C0240F010
:206400008060C7F80C02D7F80C0240F08050C7F80C0233E0A4F1C040001F0CD0A4F1C040ED
:20642000103808D0A4F100500E380FD0A4F1005014380BD022E0D7F80C0240F08060C7F878
:206440000C02D7F80C0240F00060E0E7D7F8600340F40070C7F86003D7F8480340F0200098
:20646000C7F84803D7F8480340F08000C7F84803D7F8480340F01000C7F848030C2C32D0A0
:20648000102C30D04146204604F0A9FF24F0604040F380224FEA860303F180430124521CA2
:2064A00029F0E051B8F1010FD3F8106220F4806004FA01F121D08E43A90001F18041C3F8DF
:2064C0001062D1F82C3204FA00F5AB43C1F82C32002A00E00BE004D0401C8440A343C1F8A3
:2064E0002C32BDE8F09FD7F83402204302E0D7F83402A043C7F83402F3E70E43A90001F11D
:206500008041C3F81062D1F82C3204FA00F52B43C1F82C32002AE4D0401C84402343DEE7C5
:206520004FF080420129D2F80C1203D08143C2F80C12704741F48011C2F80C12D2F80C129C
:2065400041F40011C2F80C12D2F80C1241F48001C2F80C12D2F80C1241F08061C2F80C12D5
:20656000D2F80C120143E2E770B58F4E4FF0804504463368D5F84803012A10D020F0080000
:20658000C5F84803022005F552759847286820F010002860286820F08000286070BD00F034
:2065A000E000884222D0A02904D080290DD0C02910D01BE0D5F8480320F04000C5F84803E8
:2065C000D5F8480340F0200008E0D5F8480320F0600003E0D5F8480340F04000C5F8480370
:2065E000D5F8480340F08000C5F84803D5F8480300F00700A042D1D0D5F8480300F0080029
:20660000A042CBD0D5F8480320F01000C5F8480302209847D5F8480320F00800C5F8480384
:20662000082C10D0D5F8480320F00700C5F84803D5F848032043C5F84803D5F8480340F044
:206640000800C5F84803316802208847D5F8480340F01000C5F8480370BD70B50E465349FE
:20666000884202D0524988421AD14FF08044D4F8340220F48030C4F834024B4D012004F5C1
:206680000D7429688847D4F80C0166F38E30C4F80C01296801208847206840F480302060F3
:2066A00070BD70B5404E414A0D46D403316890421CD1D4F8340220F48030C4F83402012014
:2066C00004F50D748847D4F8280120F46010C4F82801D4F8280140EAC540C4F82801316871
:2066E00001208847206840F480301EE0314A90421DD1D4F8340220F48020C4F8340201203C
:2067000004F50D748847D4F8280120F0E070C4F82801D4F8280140EA8550C4F82801316884
:2067200001208847206840F48020206070BD224A9042FBD1D4F8340220F48040C4F834028E
:20674000012004F50D748847D4F8280120F06060C4F82801D4F8280140EA4560C4F828017C
:20676000316801208847206840F48040DDE770B50D4E124A0D469404316890422BD1D4F856
:20678000380220F00100C4F83802012004F50E748847D4F8240120F4C030C4F82401D4F8AB
:2067A00024010DE01800006078052000008002400008104000840240008802400090024036
:2067C00040EAC530C4F82401316801208847206840F001001EE0FB4A90421DD1D4F838026E
:2067E00020F00400C4F83802012004F50E748847D4F8240120F4C020C4F82401D4F824016D
:2068000040EA4540C4F82401316801208847206840F00400206070BDEB4A9042FBD1D4F857
:20682000380220F48060C4F83802012004F50E748847D4F8240120F04050C4F82401D4F88B
:20684000240140EA0570C4F82401316801208847206840F48060DDE770B50D46DC4EDB49E4
:206860008C043268884219D1D4F8340220F00100C4F83402012004F50D749047D4F82801CE
:2068800020F4C060C4F82801D4F8280140EA4520C4F82801206840F001001EE0CD498842DF
:2068A0001DD1D4F8300220F48050C4F83002012004F50C749047D4F82C0120F4C040C4F8E0
:2068C0002C01D4F82C0140EA4530C4F82C01316801208847206840F48050206070BDBE4941
:2068E00088421CD1D4F8300220F48060C4F83002012004F50C749047D4F82C0120F4C05073
:20690000C4F82C01D4F82C0140EAC520C4F82C01316801208847206840F48060DDE7AF49BC
:206920008842DBD1D4F8300220F48020C4F83002012004F50C749047D4F82C0120F0404047
:20694000C4F82C01D4F82C0140EA8570C4F82C01316801208847206840F48020BDE72DE9AE
:20696000F0414FF080440646D4F860030D4640F48050C4F86003D4F80C0240F0F840C4F8F4
:206980000C02D4F8480340F00800C4F848030021304654F008FC924814233044914A07212C
:2069A000502812D8B0FBF3F0C0B210283CD2D4F86033105C81408B43C4F86033D4F8601347
:2069C00085402943C4F860132EE0854F643F3744282F12D8B0FBF3F0C0B2102824D2D4F81C
:2069E0005C33105C81408B43C4F85C33D4F85C1385402943C4F85C1316E07B4830448C284A
:206A000012D8B0FBF3F00830C0B210280CD2D4F84833105C81408B43C4F84833D4F848139E
:206A200085402943C4F848133046BDE8F041012154F0B9BB30B54FF08042012904D00C28D0
:206A400029D0102827D003E00C2820D010281ED0C0F3417320F0C04040F380220124521C02
:206A600001294FEA830101F1804120F48060D1F82C3204FA00F514D0AB43C1F82C32002A5B
:206A800004D0401C8440A343C1F82C3230BDD2F83412014302E0D2F834128143C2F834120E
:206AA00030BD2B43C1F82C32002AF9D0401C84402343E9E7C0F3816200280FD00123012930
:206AC0004FEA820101F1804120F04060D1F8102203FA00F303D09A43C1F8102270471A43FD
:206AE000FAE72DE9F74F04464FF00009C84640F2F66054F05DFB064640F2FE6054F058FB22
:206B000005464FF4E06054F053FB824640F2027054F04EFB834640F2167054F049FBB4B1AE
:206B200020F480674FF001082AF00800042C13D04FF08041032CD1F8282210D022F00102A6
:206B4000C1F82822022C0FD0012C10D011E040F480674AF008000CE04FF0010909E042F07A
:206B60000102C1F8282204E045F0100501E025F01005019929B361F30F26029940F002000A
:206B8000012902D140F0040401E020F00404294640F2FE6054F011FB394640F2167054F0FD
:206BA0000CFB314640F2F66054F007FB21464FF4E06054F002FBB8F1000F1CD04BF400700B
:206BC0001BE013E00094024000980240001001407805200000140140001801400010284003
:206BE00000E0FFBF1CE10E0200E0D7BF8108490061F34300C9E72BF4007040F0040140F265
:206C0000027054F0DAFA0648B9F1000F416802D041F0080101E021F008014160BDE8FE8F60
:206C2000008050402DE9F04100251746064656292ED2112E15D0FA4830F81140E00702D018
:206C4000641EA4B20825204654F0B2FA012F06FA05F61AD020EA06012046BDE8F04154F033
:206C6000ACBAEF48C83030F81100C0F30B05010B0120884084B2284654F09AFA0FB12043EF
:206C800000E0A04301462846E7E70643B1B2E3E7BDE8F08170B54FF490650024281980B22E
:206CA000002154F08AFA641CE4B2472CF6D94FF49F6548242819483880B2002154F07DFA11
:206CC000641CE4B2542CF5D970BD2DE9F0471C46DDE90976DDF8208089460546562829D227
:206CE00001460120FFF79EFF3A4629461020FFF799FF424629460220FFF794FF3246294663
:206D00002020FFF78FFF8CB1012C11D0002229464020FFF787FF012229468020FFF782FF4E
:206D20004A462946BDE8F04711207BE70022F3E70122ECE7BDE8F08770B5B94D002435F85B
:206D4000140010B3E1B200220220FFF76BFFE1B200228020FFF766FFE1B201224020FFF769
:206D600061FFE1B200221120FFF75CFFE1B200221020FFF757FFE1B200220820FFF752FF27
:206D8000E1B200220420FFF74DFF641CA4B2562CD5D370BD0A460146082043E70A4601462B
:206DA00004203FE710B50446FFF7F8FF2046BDE810400121EEE70021ECE770B5562801D3D0
:206DC000002070BD9749002431F8100020F47041020B0120904085B2084654F0E9F9284251
:206DE00000D00124204670BDE7E770B54FF6FF7421464FF4947054F0E0F921464FF49770E4
:206E000054F0DBF921464FF4987054F0D6F921464FF4997054F0D1F94FF49375284654F0D7
:206E2000C7F940F00F01284654F0C7F92146281FBDE8704054F0C1B90A4601460220F1E68F
:206E40000A4601461020EDE60A4601468020E9E62DE9F0410F4672490024164631F8105032
:206E6000E80702D06D1EADB20824284654F0A0F9802101FA04F117B1014388B200E088436E
:206E8000402202FA04F216B1024391B201E020EA02012846BDE8F04154F08FB90A460146FA
:206EA0004020BFE60A4601461120BBE656280AD25C4931F8101021F470400A0B012191404F
:206EC00089B254F07AB970470A4601460120A9E60A4601462020A5E670B500220C460429DA
:206EE0001CD85049C0318B5C834204D0521CD2B20A2AF8D336E00A2A34D24A48AC3030F8BD
:206F00001210C1F30B060D0B304654F051F90721A9408843AC400443A1B21EE0082C21D2E7
:206F2000404B2821CA339D5C854203D0521CD2B28A42F8D38A4215D24FF41060641F00EB90
:206F40009206E5B25007040F304654F031F90321A1408843A5400543A9B2304654F02DF97C
:206F6000012070BD002070BD70B500240546562921D2112D0ED02A4830F81100C10702D00F
:206F8000401E80B2082454F013F9A540054210D0012070BD2348AC3830F81110C1F30B0034
:206FA0000A0B012191408CB254F002F92040EFD170BD002070BD042070BD10B504465628D4
:206FC00016D201460220FFF7CFFF98B121461120FFF7CAFF01280FD021461020FFF7C4FFA4
:206FE000002806D021461020FFF7BEFF012800D0042010BD022010BD032010BD2DE9F04139
:2070000006464FF4957714460D46384654F0D0F856B1012E0DD0022E10D0012038E600003C
:2070200030E10E02A4E20E0264F3CF3065F38E300CE064F34D3065F30C3007E064F3CB20B0
:2070400015B120F4806001E040F480600146384654F0B3F800201BE6C44951F8200070477F
:2070600070B5054640F2F6460C46304654F0A0F8BF498D4208D164F3000064F3410064F398
:20708000820064F3C3000AE0BA498D420AD164F3041064F3451064F3861064F3C710014644
:2070A000304631E0B4498D4208D164F3082064F3492064F38A2064F3CB20F0E7AF498D4284
:2070C00008D164F30C3064F34D3064F38E3064F3CF30E4E7AA4885421AD140F20E55284693
:2070E00054F066F864F3000064F3410064F3820064F3C30064F3041064F3451064F3861008
:2071000064F3C71001462846BDE8704054F055B870BD2DE9F0414FF080450E462C6B074636
:2071200040F60A48404654F043F86EB120F4805167F34D31404654F040F844F0080028631D
:2071400020F008002863A3E540F48051F0E710B540F60A44204654F02BF820F40051204647
:20716000BDE8104054F029B82DE9F0414FF080440746256B40F60A46304654F019F867F323
:207180008E300146304654F018F845F00800206320F0080020637BE50021562801D30846A4
:2071A00070477849085C7047002826D040F2622305280ED2744A104410F8010C01FA00F147
:2071C0008AB24FF0030101FA00F189B24FF418700EE006D14FF6FF7000EA81224FF4406154
:2071E00005E0062806D0072807D18A000C21184653F0E8BF8A01C021F9E7704710B50A4688
:20720000072801D8072002E0FFF7C6FF1146FFF7CBFF012010BD30B40B46322801D2012119
:2072200000E00021442801D9012200E0002211431BD1544A4C3A32F82140844211D102EB5E
:2072400081004188002910D0C1F30B000A0B0121914089B21BB1002230BC53F0B3BF0A46FA
:20726000FAE7491C89B21329E5D330BC70477047704770B504464FF49575284653F098FF84
:207280002CB1012C06D0022C07D0002070BD20F4004104E020F4005101E020F4006128465A
:2072A00053F08BFF012070BD102070472DE9F047DFF8D4A00D46814600240AF1CC0A4FF0E6
:2072C00001083AF8140007053F0D1ED04C451CD0010B08FA01F086B2384653F069FF3042CA
:2072E00013D02A4804F0070200EBD400017808FA02F0014209D105EBD4010A7802430A70ED
:2073000000223146384653F05DFF641CE4B2562CD7D34FF08040D0F8A802E8600AE52DE9B7
:20732000F04105464FF08041C068C1F8A802164F0024CC37012637F814100805000D4FEAED
:20734000113106FA01F189B20BD005EBD40304F0070C1B7806FA0CF2134202D00A4653F0CA
:2073600031FF641CE4B2562CE5D391E498E30E0200000840004008400080084000C00840ED
:20738000008020BEE8E50E022CE10E024C06420010B5002276491020FEF7FDFF744900225B
:2073A000891DBDE810401120FEF7F5BFF0B5714B1422984204D8704C0319B3FBF2F204E0BD
:2073C0006E4C0319B3FBF2F208324FF08043D3F8484344F01004C3F848438C88072C0BD102
:2073E000D3F80C4244F0C044C3F80C42D3F8604344F48054C3F860430725052A10D2D3F853
:20740000606302EB42041034A540AE43C3F860638D88A540D3F860432543C3F8605326E09A
:20742000541F032C0FD2D3F85C6304EB4404A540AE43C3F85C638D88A540D3F85C432543EC
:20744000C3F85C5313E0A2F10804082C0FD2D3F8486302EB4204103CA540AE43C3F84863EA
:207460008D88A540D3F848432543C3F84853032A07D0052A05D0072A03D0092A01D00B2AB9
:2074800010D191F824500124A61E012DD3F86053A2F1010706EB570604FA06F411D0A543CF
:2074A000C3F860534C89002C0C890CD00C2545EA44048460082A0CD22E4C243404EB820409
:2074C0000BE02543ECE7042545EA44048460CC6806E02B4C04EB8204203C0D6925604C69F0
:2074E00004608C8D012C04D0022A23D0032A28D02DE04FF40054022A02D0032A0DD026E018
:207500000D8E8A6A42EA452502B10024C98D44EA81210D4345F4805110E00D8E8A6A42EA44
:20752000452502B10024C98D44EA81210D4345F480510AE0D3F8641321F48051C3F8641346
:2075400005E0D3F8681321F48051C3F86813C068F0BD0121018140F6FF72C2600022C0E9D7
:2075600006210162828080F824200186C28570470E0000208C20004000E0FFBF00E0D7BF10
:20758000B0202840F849884204D100224FF0C041F6480FE0F649884204D1F4480022F549CA
:2075A000401C07E0F449884206D1F249EF4800220831401EFEF7EFBE7047F0B5EA4B9A04AE
:2075C000984204D1D2F85C23C2F3C1320EE0E84B984204D1D2F85C23C2F3414206E0E64BA3
:2075E00098427DD1D2F85C23C2F30172012404FA02F2E24BD2B2B3FBF2F2DD10E04B9E10D2
:20760000AA4206D1C8220324C0F8A04005E0314613E0DC4DAA4203D16422B142F7D80AE094
:20762000D94DAA4206D13222C0F8A040994202D9194609E01922B14204D841F25C234FF478
:207640007A6411E0994204D840F214534FF416740AE0CE4B994200D919460223C0F8A0307B
:207660004FF4FA734FF48274D0F8A050D0F8A070EDB2FFB2093515FB02FCD0F8A050BF1D61
:20768000EDB23D44ED1D15FB02F79C4500D29C46A74200D22746BE4BBE4CB3FBF1F32468C9
:2076A0001D1BB5FBF2F302FB135313F0FF0301D0D31A1D44B5FBF2F3D0F8A040D0F8A05081
:2076C000E4B21C1BBCFBF2F3B7FBF2F2EDB2521B5B1E083CE51AD21FAD1A002D06DD00E03B
:2076E0000FE005EBD57203EB6203E21AB142016841F0060106D84FF6FB742140016042618A
:207700008361F0BD4FF6FD7421400160C2610362F0BD30B50446C06E0D4620F00100E06624
:207720000889412823D0A97A40EAC1002060D4F89800E9890840C4F89800A889A060082003
:20774000E0670220C4F894002869E0636869A063688B298B40EA4100C4F88800687FC4F8CF
:207760009000287FC4F88C000020206330BDA87A202141EA001040F041002060A889A97A17
:20778000C0F3090040EA013060600120E0678149A87F086020466968FFF70FFFD4E777499B
:2077A000016077494160412101810021817281810122C281016141610183418342770F2172
:2077C00001776421817770470029C16E02D041F0010101E021F00101C1667047D0F8801076
:2077E00041F60F02114218D0406D080701D503207047C80701D006207047C80401D501205A
:207800007047080501D502207047880701D505207047480701D504207047002070472DE9C7
:20782000F0410C465C490546002617463046A2F1010C88460B6816E014F8011B664501DB56
:2078400041F400712961D8F8003005E02846FFF7C5FF002819D15B1E296F890701D4002B38
:20786000F4D1761CB6B2BE42E6D305E02846FFF7B5FF002809D15B1E296F11F0010F06D198
:20788000296F11F0040F02D01BB1BDE8F081002BECD10720F9E72DE9F0438C463E490546AC
:2078A00000269146079F304688460C6812E01CF8011B2961D8F8004005E02846FFF78EFFDB
:2078C000002836D1641E296F890701D4002CF4D1761CB6B24E45EAD30026A7F1010C16E0FE
:2078E00013F8011B664501D341F400712961D8F8004005E02846FFF771FF002819D1641E55
:20790000296F890701D4002CF4D1761CB6B2BE42E6D305E02846FFF761FF002809D1641E99
:20792000296F11F0010F06D1296F11F0040F02D01CB1BDE8F083002CECD10720F9E72DE95E
:20794000F0471746044600250E46DFF84CA02846A7F1010C4FF440794FF4807836E0654503
:207960001CDB49461BE000000090024010000008009402400200006000980240005A6202CC
:20798000801A060080969800002D310140420F0000CA9A3B5806420014014200414621610A
:2079A00095B1DAF8003005E02046FFF717FF002820D15B1E216F090702D4002BF4D103E04D
:2079C00013B1216906F8011B6D1CADB2BD42C6D3DAF8003005E02046FFF700FF002809D17B
:2079E0005B1E216F090702D4002BF4D104E01BB121693170BDE8F0870720FBE72DE9F04161
:207A00000446002590460E46DFF84CC228464FF4807716E0276195B1DCF8003005E020462D
:207A2000FFF7DCFE002820D15B1E216F090702D4002BF4D103E013B1216906F8011B6D1CAA
:207A4000ADB24545E6D3DCF8003005E02046FFF7C5FE002809D15B1E216F090702D4002B60
:207A6000F4D103E013B1216931700EE707200CE72DE9F04F0026044693468C463746B1467C
:207A8000DFF8D4A13046DDF8248012E01CF8011B2161DAF8005005E02046FFF79FFE0028DF
:207AA0003BD16D1E216F890701D4002DF4D1761CB6B25E45EAD3D446DAF8001000E0491EAB
:207AC000226F920701D40029F9D1002620E0A8F101018E4202DB49F4407101E049F4807149
:207AE0002161DCF8005005E02046FFF777FE002813D16D1E216F090702D4002DF4D105E046
:207B000025B121697F1C03F8011BBFB2761CB6B24645DCD3474500D00720BDE8F08F002ADD
:207B2000026B01D00A4302E0C94389B20A4002637047802923D00EDC08291CD005DC01297D
:207B400017D0022900D1806C7047202915D04029FAD1406D7047B1F5807F12D0B1F5007F2D
:207B600011D0B1F5806F10D0B1F5006FF2D1806E7047406C7047C06C7047006D7047806DDB
:207B80007047C06D7047006E7047406E704702680A6042684A6082688A60C268CA604269C5
:207BA0000A6182694A61C2698A61026ACA61426A0A62826A4A62026B8A62826BCA62C26BC8
:207BC0000A63C26E4A63C26F8A63D0F88420CA63D0F888200A64D0F88C204A64D0F890202C
:207BE0008A64D0F89420CA64D0F8A00008657047542070470A6802604A6842608A6882603A
:207C0000CA68C2600A6DC0F8A0200A6942614A6982618A69C261CA6902620A6A42624A6AFC
:207C200082628A6A0263CA6A82630A6BC2638A6BC267CA6BC0F884200A6CC0F888204A6C19
:207C4000C0F88C208A6CC0F89020CA6CC0F89420496BC1667047000014014200E0498842E4
:207C600003D10022DF49E0480DE0E0494FF00002884204D1DB49DC48891E401C03E0DA4878
:207C80004FF02041801CFEF786BBD548E6E72DE9F041CE680A680D46044606B90126D34FF4
:207CA000BC4209D14A2053F092FA904204D8532053F08DFA904207D2CD4884420ED15420EF
:207CC00053F085FA904209D14FF47D78404653F06FFA40F02001404653F06FFA287901287F
:207CE0006068296839D0884360606879012830D100206063A87970B3012844D0A06E296889
:207D00000843A066E87938B3E16B286881430143E163287AB0B3A16C286881430143A164EF
:207D2000AF4A4FF0FF31900494423CD1D0F844236FF30F0242F4E852C0F84423D0F8442304
:207D400049F640435E4301EB9631C9B20A43C0F84423BDE8F0810CE01BE008436060687A3C
:207D60000028A068296802D00843A060F1E78843FBE7A06B29688843A063206E29680843CC
:207D80002066BFE70AE0A16B286881430143A163B8E7E06B29688843E063BAE7A06C29685E
:207DA0008843A064D5E7BC4213D1D0F8442392B242F0E852C0F84423D0F8442349F6404367
:207DC0005E4301EB9631C9B242EA0141C0F84413BFE74FF4E852C0F84C23D0F84C2349F697
:207DE00040435E4301EB9631C9B20A43C0F84C23AFE701467A484AE74FF0FF3101600021FC
:207E0000017141718171C171017241721421C1607047002A026B01D00A4300E08A43026320
:207E200070470A4601466E48F3E76D49C864C86C70470A4601466A4853F0CEB9562803D231
:207E40006C49085C502800D9FF20704730B5674B674D634C4FF08042C1B1A04204D1D2F8F4
:207E6000440340F4805005E0984206D1D2F8440340F08050C2F8440330BDA842FCD1D2F8A1
:207E80004C0340F48050C2F84C0330BDA04208D0984204D1D2F8440320F08050EAE7A84284
:207EA000F3D1D2F8440320F48050E3E701464C48CCE72C20704702680A6042684A6082689C
:207EC0008A60026BCA60426B0A61826B4A61C26B8A61826C424BCA619A04984202D0434BDB
:207EE000984202D1D2F8442301E0D2F84C230A62826E4A62006E88627047394B9A04984277
:207F000010D1D2F8303243F08073C2F83032D2F8303243F00073C2F83032D2F81C3243F4D5
:207F2000807323E0314B984210D1D2F8303243F48003C2F83032D2F8303243F40003C2F8F2
:207F40003032D2F81C3243F400730FE0D2F8403243F00103C2F84032D2F8403243F00203FB
:207F6000C2F84032D2F81C3243F48063C2F81C324A68426009680160704710B58A68826025
:207F80000A6802604FF0FF3242634A6982638A69C2638A6A02664A6A8266CA680263104B5E
:207FA0009A04984204D1D2F844330C8CA4B207E00E4B984208D1D2F844330C6A6FF30F0426
:207FC0002343C2F8443302E00B6AC2F84C33CA6982644B68CA699A43C2640969416310BD95
:207FE00000100040180000200800000C00180040008800403EE60E022DE9FE4F8346FE481F
:208000004FF27C77012500884FF0000CDFF8E8838743DFF8F093AA1EF8A18DF808C0644675
:20802000AA4608F104080AFA04F0384227D0082C04EB840001D2F44B00E0F44B03EB800399
:208040009868C00700D001208DF808009E685B6806F0080698B10EB1EDA105E008EB04108C
:208060000078C00602D5EBA100251FE047F23050834201D2EBA1F7E79A4200D91A46641CEB
:20808000E4B2102CCFD38DB1501C32D07D20B2F1804F03D3B2FBF0F0800002E09100B1FBAF
:2080A000F0F0CBF80000A9F802C022E0B9F8020041F28833401C80B2A9F80200984218D91B
:2080C00008EB0416A9F802C0706808B9CBA07060D74F384653F085F880463846716853F098
:2080E00080F8CDE9000823460322D249D24852F0F1FF2846BDE8FE8F2DE9F041C14F064612
:2081000000243878012518B9CC4801F08BFE3D7052F0B3FFB84F03464FF27C703A881040D6
:20812000B10702D500F0FC0109E030F0FC0100D1014611F00C0F02D100F00C000143F0077F
:2081400002D001F00C0003E031F00C0001D1084668B190FAA0F0B0FA80F040B1102806D2D2
:20816000A549091D8540AA4301EB00143A80184652F08DFF2046BDE8F081F8B50446007868
:20818000002500F00F0652F078FF9B4A074601201188B040084203D10843108001250DE014
:2081A000A348616853F01DF800902078A14900F00F030222BC39A04852F08CFF384652F011
:2081C00066FF2846F8BD2DE9F04190B01C0090460E4607464FF0010500D00525AE4200D2FC
:2081E0002E4603F006FC07EB8700082F01D2864900E0864901EB80056846FFF7AAF900203D
:208200000721ADF80410ADF808808DF82400ADF80A00761EADF82C00039669462846FFF7E7
:20822000C5F8002C28D0384603F058FB0646384603F048FBA4F100714FF00072914203D339
:20824000A4F18064944201D2012200E00022314603F0F7FB384603F029FB8DF8340003200A
:208260000E9001208DF83C000DA852F024FFE8680121284652F0BAFF10B07CE700EB8002F9
:20828000082801D2604800E0604800EB82008268D20700D001221AB102684068101A00E0A1
:2082A00000200860704700EB8002082801D2564800E0564850F822000860704700EB8002FD
:2082C000082801D2504800E0504800EB82008068C00700D001200870704700EB80020828B2
:2082E00001D2494800E04948002900EB8200816802D041F0020101E021F002018160704797
:208300002DE9F04106461F46144600EB8600082E01D23D4A00E03D4A02EB8005012001B15E
:208320000520844200D2044600294FF0000128461AD052F05BFF304652F05DFF611E2846D8
:2083400052F05EFF0121284652F02DFF641E6868A042FCD8791E284652F052FF2846BDE8CD
:20836000F041012152F042BF52F01DFF611E284652F046FF0121284652F015FF641E68685D
:20838000A042FCD8791E2846BDE8F04152F038BF30B585B000EB8001082801D21A4A00E046
:2083A0001A4A02EB81010D69CC688B684A680DF1040C8CE83C000968034600911D491E48C6
:2083C00006228439C01C52F085FE05B030BDF0B5094B1C884FF27C73A343012484401C427B
:2083E0004ED0054B00EB80041B1D03EB0013064F1B78DE0624E00000180142006E756C6C81
:20840000000000005C06420000200040601F284070776D006C706D5F66616C73655F74692E
:208420006D6572006E6578745F74696D65000000000040423406800800211042F97F0602F4
:20844000804D07EB840305EB840407EB800518D44E68370715D4F60713D0082800D32346D2
:20846000C868904201D9801A00E00520C5F8B00018604A689A605A688242FCD808681860AE
:20848000F0BD082800D3234608681860486898608868C5F8B000F0BD2DE9F8430746002665
:2084A0001D46904689463046FFF726FE04000ED06760C4E9025420682B4620F010002060DF
:2084C00000F00F00424649460096FFF77CFE2046BDE8F8832DE9F84307461D4616468846CF
:2084E0000220FFF709FE04000FD06760C4E902542068012120F010002060009100F00F00D6
:208500002B4632464146FFF75EFE2046E0E710B504004FF0000006D0204652F076FE20460C
:20852000BDE8104029E610BD002803D0007800F00F0018307047002800D04068704700287A
:2085400002D0007800F00F00704700B5002805D0007800F00F00FFF7C0FE012000BD00B5AB
:2085600030B1007800F00F00FFF788FE012000BD0020086000BD00B530B1007800F00F00F7
:20858000FFF791FE012000BD0020086000BD00B530B1007800F00F00FFF790FE012000BDC4
:2085A0000020087000BD10B50C4600280AD0816801B101210078134600F00F002246FFF762
:2085C0009FFE012010BD20484FF27C710088084052F020BE2DE9F8431B484FF27C751A4F3B
:2085E0000088002485430126DFF86080DFF860903F1D06FA04F028420CD007EB041041681D
:20860000404652F0EEFD0090234602221149484652F060FD641CE4B2102CEAD358E700783D
:2086200000F00F00B4E6002230B10029016805D021F01001012201601046704741F0100142
:20864000F8E70000601F284018014200000040420221104214068008FF4A014602EB41138F
:2086600000201968C1F30152002A0DD0411E012A04D0022A08D1586852F0D1BD5A68002A6C
:2086800002D0104652F0D0BD7047002911D0F24901EB40110868C0F30150002809D001280C
:2086A00004D0022805D1486852F0C3BD486852F0C5BD70472DE9FC410446E748022300EB6D
:2086C0004410002200880121C5B2C0F30726284600F069FD022300220121304600F063FD30
:2086E000304652F0B0FD0746284652F0ACFD03460222DA49DA48009752F0ECFC01220223B4
:208700001146284600F04FFD012202231146304600F049FD0121284652F036FD0021304671
:2087200052F032FDCF491420096888470121304652F02AFDCC48015D284652F0DFFCCA482C
:20874000C01E015D304652F0D9FC002401220094234611463046019452F0D5FC01220094E0
:20876000002311462846019452F0CDFCBDE8FC813EB50C4605461146BC4852F032FD0346AA
:20878000B948093050F825004068CDE90005B349042240310294B24852F09CFC072C03D1CB
:2087A0002846BDE83E4085E73EBD70B50D46AE49093151F820406068A84212D00021204654
:2087C000FFF702F860686FF3090060606068C5F30901084360602046BDE870400121FEF74F
:2087E000F3BF70BD70B59C48CDB200EB45142846E169FFF74AFF2269002A05D02846BDE83A
:2088000070404FF48051104770BD70B588B00E460546032802D3F02008B070BD8E4800EB5E
:2088200045142068C0F30341012906D020218A4852F0A5FCF179206803E010F4401F03D15E
:20884000F17961F31550206020F4702000F58030206085480122213050F825100C3850F862
:208860002500FDF798FD6846FEF799FF306801904120ADF80800B0798DF80A00B088ADF843
:208880000C000120ADF81A00774EADF80E008DF81D00ADF81800062009368DF81C0056F8C1
:2088A00025006946FEF735FF56F825000121FEF78BFF21682046C1F3015191B1012902D074
:2088C00002290ED105E0416859B9201D52F0C0FC07E0416829B90123201D1A4664A152F039
:2088E000BCFC002098E730B589B00D460446032802D3F02009B030BD2021574852F03FFC53
:208900005548012200EB4410016821F4702101F5803101605448213050F824100C3850F84C
:208920002400FDF738FD6846FEF739FF0020ADF80800A8788DF80A0028884B4DADF80C009A
:2089400001200935ADF80E0055F824006946FEF7E0FE55F824000121FEF736FF0020C9E785
:208960002DE9FC4115460E460446032801D3F020FCE63D48015D304652F0C0FB3A48C01E04
:20898000015D284652F0BAFB0027012200973B4611462846019752F0B6FB01220097002385
:2089A00011463046019752F0AEFB2B4800EB4410067045700020D9E62DE9F04397B01446C1
:2089C0000D460746032801D2102D03D3F02017B0BDE8F083204800EB4716B06920B9142120
:2089E000022002F032FCB0613068346140F0006065F31F70306001221F490D20B469FDF727
:208A0000CAFC6846FDF71CFA4FF001094FF0000815488DF800508DF80190CDF80C808DF82A
:208A200010800222CDF8189009308DF81120CDF81490CDF81C90CDF82090CDF8048050F846
:208A400027004146103002900748C01CC05D8DF803004FF0C05011E0600642006C068008E4
:208A6000002110427805200097E60E02000040426932635F73656D00100000200B9005EB7A
:208A800045008DF8281000EBC5000C94082D01D3FE4900E0FE4901EBC0006946FDF7E1F8E5
:208AA0004046C4F800800299616004F11401A1609DF811109DF81020C90141EA4221089A18
:208AC00041EAC221079A41EA82319DF8012041EA02510B9A114341F01301E160206131891B
:208AE00061610299A161E0619DF811009DF81010C00140EA4120089940EAC120079940EAB9
:208B000081309DF8011040EA015040F0130020624E46C4F824903A46DE49284600F0EEFCCB
:208B2000062D02D305F1180001E005F114008DF84C00052014908DF8546013A852F0BBFAAF
:208B400001221146284652F0BBFA00203FE730B597B00C460546032801D2102C02D3F02008
:208B600017B030BD0122CC490D20FDF714FC6846FDF766F9002002218DF800408DF8011039
:208B80008DF81010C54903908DF81100059006900790089051F825101031CDE901100B20EE
:208BA0008DF8020004EB440000EBC400082C01D3B64900E0B64901EBC0006946FDF751F8CE
:208BC0002A46B449204600F099FC062C02D304F1180001E004F114008DF84C0001208DF8C8
:208BE00054000320149013A852F065FA01221146204652F065FA0020B2E72DE9F0410F4628
:208C00000446032802D3F020BDE8F081FFF724FDA24D0646002155F82400FEF7D5FD55F8EC
:208C200024003946FEF7C9FC55F824000121FEF7CBFD31462046FFF728FD0020E4E72DE98E
:208C4000F0411E4614460F460546032801D3F020DAE7FFF701FD804639462846FFF7A5FD76
:208C60008E48B2B2214650F82500FEF7D8FD040005D08A4A014624322846FFF779FD414671
:208C80002846FFF702FD2046BEE72DE9F84F1E46DDE90A47914688460546032802D3F0208E
:208CA000BDE8F88FFFF7D8FC824641462846FFF77CFD7A480097B2B250F825002346494670
:208CC000FEF7E9FD040005D0744A014639322846FFF74EFD51462846FFF7D7FC2046DFE7C7
:208CE0000FB583B0012306AACDE9002305AAFFF7CCFF07B000BD0FB583B0022306AACDE96A
:208D00000023012305AAFFF7C0FFF2E70FB583B0089ACDE90032012305AAFFF7B6FFE8E701
:208D20000FB583B0089ACDE90032022305AAFFF7ACFFDEE72DE9F0411E4614460F460546D3
:208D4000032801D3F0205FE7FFF786FC804639462846FFF72AFD5148B2B2214650F82500A5
:208D6000FEF7EDFD040005D04C4A014655322846FFF7FEFC41462846FFF787FC204643E77B
:208D80002DE9F84F1E46DDE90A47914688460546032801D3F02083E7FFF75EFC82464146F3
:208DA0002846FFF702FDB8B200903C48B2B2234650F825004946FEF75BFE040005D0374A61
:208DC000014669322846FFF7D3FC51462846FFF75CFC204664E773B50546032801D3F020F8
:208DE0007CBDFFF739FC06460121284600F070F82A48012201A950F82500FEF710FD040029
:208E000005D0264A014686322846FFF7B1FC0021284600F05DF831462846FFF736FC2046B6
:208E20007CBD70B51D461646032801D3F02070BD1B4901EB40142168090112D5A16981B17F
:208E4000FFF70AFCE06121680822B2EB117F4FEA1171A06901EB410202EBC10103D80B4A23
:208E600002E0F32070BD0A4A02EBC10106EB450232F8022C42F40072228100F11402826009
:208E80006D1E05610660C2680CE000004031284000302840E587060210000020A0E60E02BA
:208EA0006006420042F0C052C26004F1080242618A6922F0C0528A610861886940F0C05066
:208EC000886120680121000F52F0DCF8002070BD084A002952F82000416806D041F4006193
:208EE0004160416821F4806101E021F40061416070470000A0E60E0210B50A460121FDF7C2
:208F0000A7FF002010BD70B5F84C607800283DD100F010FBF64A01215070107802F095F922
:208F2000F349F44D091D086020B90022F249284652F0D0F8FEF7BDFF0146002000F0EAFC8A
:208F4000A06028B9EC4900223431284652F0C2F8FEF7AFFF0146002000F0DCFCE06028B917
:208F6000E54900226C31284652F0B4F8FEF7A1FF0146002000F0CEFC206128B9DE49002247
:208F8000A431284652F0A6F80120607070BD10B5D64CA16811B1D948FEF7EFFFE16811B1CF
:208FA000D748FEF7EAFF2169002904D0BDE81040D448FEF7E2BF10BD10B5CC4CA16811B111
:208FC000CE48FEF79AFFE16811B1CD48FEF795FF2169002904D0BDE81040CA48FEF78DBF75
:208FE00010BD2DE9F041C24E0746361D0D463068405D10F0030F1AD1C0F30014410703D541
:20900000C0F3C000A04212D00CB1002100E001213846FDF7C7FE3846FEF729F93068415D37
:2090200021F0080141EAC40141F004014155BDE8F0812DE9F041AE4E0746361D0C46306877
:20904000005D10F0030FF2D13846FEF7F7FE0546384652F0BCF80146284652F003F900685C
:209060000025084200D001253068005DB5EBD01FDDD029463846FDF7E3FE3068015D21F091
:20908000800141EAC5110155D1E72DE9F041984E0024361DDFF854823068254688B3371F5B
:2090A000787890B92AE03068405D400603D529460846FFF7BEFF3068405D800603D52946A8
:2090C0000846FFF78EFF6D1CEDB238788542EAD317E0D8F80400055D3068005D400603D523
:2090E00021462846FFF7A5FF3068005D800603D521462846FFF775FF641CE4B238788442E3
:20910000E7D3D8F80810444611B17C48FEF7D3FEE16811B17A48FEF7CEFE2169002986D040
:20912000BDE8F0417748FEF7C6BE80E76F4810B50178002921D101210170FFF7E4FE01221C
:2091400071497248FDF727F96F4970480122891E401CFDF720F96D4801224FF02041801CD0
:20916000FDF719F96A4802F0BCF96A4802F0C1F9BDE81040684802F0B8B910BD5C4B10B5F1
:209180005A780146002A0DD1584842684AB100201B7804E0145C8C4204D0401CC0B2984218
:2091A000F8D3FF2010BD2DE9FF4F83B01E4615460C46FFF7A8FE0398FEF740FE8146039884
:2091C000FFF7DCFF4A4B1B1D1A683AB1B9F1FF0F09D0FF2807D0022C08D009E06FF00200A5
:2091E00007B0BDE8F08F6FF00100F9E705B900244FF0000C4FF0010B1EB1012E1BD0022EC3
:209200001BD002218A46012C19D02F46115C002621F08301214311549CB1022C28D00398E6
:2092200051F0D5FF8046484652F01CF804462F48007868B110E00121E4E70021E2E700272F
:20924000E4E7012DEBD11A6841F040011154E6E7FFF76CFF00F0AAF95A21039851F04EFF9B
:209260006168012D0ED021EA080161604FF0010CCDE9007653465A466146039851F043FFCE
:209280000020ADE741EA0801EFE71949091D0968085C00F0030070472DE9F0470E468146A1
:2092A00051F095FF07464846FEF7C8FD804651F0D9FF04464846FFF761FF0D490546091D70
:2092C000086870B1B8F1FF0F28D0FF2D26D0405D884610F0030031D0012822D002283ED169
:2092E00027E06FF00200BDE8F0870000C00642001C02420000211042E80680080010004049
:209300000018004000880040180000200800000C8B900602B98F06028F8F06026FF00100E8
:20932000E1E76068012E02D0B843606017E03843FBE731464846FDF77FFD10E03146484623
:20934000FDF77AFD6068012E0BD0B8436060D8F80000415D21F0400141EA861141550020DD
:20936000C1E73843F2E700F037B800B90120414948600020704770B53F4D002422462C7056
:209380003E493F48FDF707F8A86810B151F0A7FEAC603A493A480022891E401CFCF7FBFFF2
:2093A000E86810B151F09BFEEC60354800224FF02041801CFCF7EFFF286910B151F08FFE9A
:2093C0002C612C4E306810B101F043FF34606C70BDE8704000F0E9B82DE9FF471F46154688
:2093E0008946804651F0F3FE06464046FEF726FD044651F037FF82464046FFF7BFFEDFF823
:209400007480D8F8001051B3FF2C2BD0FF2829D00A5C22F0100242EA05120A546846FEF760
:20942000EBFC00208DF80400012000968DF80500B9F1000F19D000208DF80600012D16D0FA
:2094400000208DF807008DF80870D8F80400039069465046FEF71BFC002004B043E76FF04E
:209460000200FAE76FF00100F7E70120E4E70120E7E7000020024200C0064200180000204C
:209480000800000CF0B4EFF305810020A1F12402132A31D8292901D8114600E02839CBB24E
:2094A000204D214E1C460F2B01D8294603E0A3F110043146E4B2896A012202FA04F42142E7
:2094C00000D010461C460F2B01D8294603E0A3F110043146E4B2A24041F8782F8A608A6153
:2094E0000A610A62114951F82320002A04D0403951F82310F0BC1047F0BC704710280FD23D
:209500000A4B062843F82010A3F1400141F8202001D3283000E02430C0B2054900F049BCFA
:2095200070470000C0322840C00210BE14074200859406020120704770B514460D46064616
:20954000FFF7A3FE20B922462946304600F030F93046FEF773FC22462946BDE8704000F03F
:209560006EB870B516460D46FEF768FC044600F05CF8FF2C01D0512C01D3002070BD4C48DC
:2095800001684C485CB1012C0CD001EB8401D1F83012296050F824003060012070BDD0F8A1
:2095A0004411F6E7D0F84811F3E7704710B54249192000F0FEFB41491A2000F0FAFB404923
:2095C0003E2000F0F6FB3F493F2000F0F2FB3E49402000F0EEFB3D49412000F0EAFB3C4987
